{
  "contractName": "Echo",
  "abi": [
    {
      "constant": true,
      "inputs": [],
      "name": "lastMessage",
      "outputs": [
        {
          "name": "",
          "type": "string"
        }
      ],
      "payable": false,
      "stateMutability": "view",
      "type": "function"
    },
    {
      "constant": true,
      "inputs": [],
      "name": "messageCount",
      "outputs": [
        {
          "name": "",
          "type": "uint256"
        }
      ],
      "payable": false,
      "stateMutability": "view",
      "type": "function"
    },
    {
      "constant": true,
      "inputs": [],
      "name": "s",
      "outputs": [
        {
          "name": "",
          "type": "string"
        }
      ],
      "payable": false,
      "stateMutability": "view",
      "type": "function"
    },
    {
      "constant": true,
      "inputs": [],
      "name": "owner",
      "outputs": [
        {
          "name": "",
          "type": "address"
        }
      ],
      "payable": false,
      "stateMutability": "view",
      "type": "function"
    },
    {
      "inputs": [],
      "payable": false,
      "stateMutability": "nonpayable",
      "type": "constructor"
    },
    {
      "constant": false,
      "inputs": [
        {
          "name": "text",
          "type": "string"
        }
      ],
      "name": "echo",
      "outputs": [
        {
          "name": "",
          "type": "string"
        }
      ],
      "payable": true,
      "stateMutability": "payable",
      "type": "function"
    },
    {
      "constant": true,
      "inputs": [],
      "name": "fullHistory",
      "outputs": [
        {
          "name": "",
          "type": "string"
        }
      ],
      "payable": false,
      "stateMutability": "view",
      "type": "function"
    }
  ],
  "bytecode": "0x608060405234801561001057600080fd5b50336000806101000a81548173ffffffffffffffffffffffffffffffffffffffff021916908373ffffffffffffffffffffffffffffffffffffffff1602179055506040805190810160405280600881526020017f4e6f6e65207965740000000000000000000000000000000000000000000000008152506003908051906020019061009c9291906100a2565b50610147565b828054600181600116156101000203166002900490600052602060002090601f016020900481019282601f106100e357805160ff1916838001178555610111565b82800160010185558215610111579182015b828111156101105782518255916020019190600101906100f5565b5b50905061011e9190610122565b5090565b61014491905b80821115610140576000816000905550600101610128565b5090565b90565b6108af806101566000396000f300608060405260043610610078576000357c0100000000000000000000000000000000000000000000000000000000900463ffffffff168063329707101461007d5780633dbcc8d11461010d5780637fa953c91461013857806386b714e2146101c85780638da5cb5b14610258578063f15da729146102af575b600080fd5b34801561008957600080fd5b50610092610384565b6040518080602001828103825283818151815260200191508051906020019080838360005b838110156100d25780820151818401526020810190506100b7565b50505050905090810190601f1680156100ff5780820380516001836020036101000a031916815260200191505b509250505060405180910390f35b34801561011957600080fd5b50610122610422565b6040518082815260200191505060405180910390f35b34801561014457600080fd5b5061014d610428565b6040518080602001828103825283818151815260200191508051906020019080838360005b8381101561018d578082015181840152602081019050610172565b50505050905090810190601f1680156101ba5780820380516001836020036101000a031916815260200191505b509250505060405180910390f35b3480156101d457600080fd5b506101dd610594565b6040518080602001828103825283818151815260200191508051906020019080838360005b8381101561021d578082015181840152602081019050610202565b50505050905090810190601f16801561024a5780820380516001836020036101000a031916815260200191505b509250505060405180910390f35b34801561026457600080fd5b5061026d610632565b604051808273ffffffffffffffffffffffffffffffffffffffff1673ffffffffffffffffffffffffffffffffffffffff16815260200191505060405180910390f35b610309600480360381019080803590602001908201803590602001908080601f0160208091040260200160405190810160405280939291908181526020018383808284378201915050505050509192919290505050610657565b6040518080602001828103825283818151815260200191508051906020019080838360005b8381101561034957808201518184015260208101905061032e565b50505050905090810190601f1680156103765780820380516001836020036101000a031916815260200191505b509250505060405180910390f35b60038054600181600116156101000203166002900480601f01602080910402602001604051908101604052809291908181526020018280546001816001161561010002031660029004801561041a5780601f106103ef5761010080835404028352916020019161041a565b820191906000526020600020905b8154815290600101906020018083116103fd57829003601f168201915b505050505081565b60045481565b606080600060206040519081016040528060008152509150600090505b60018054905081101561058c5761057d61050f60018381548110151561046757fe5b906000526020600020018054600181600116156101000203166002900480601f0160208091040260200160405190810160405280929190818152602001828054600181600116156101000203166002900480156105055780601f106104da57610100808354040283529160200191610505565b820191906000526020600020905b8154815290600101906020018083116104e857829003601f168201915b50505050506106c9565b61056f61056a6105536040805190810160405280600281526020017f7c7c0000000000000000000000000000000000000000000000000000000000008152506106c9565b61055c876106c9565b6106f790919063ffffffff16565b6106c9565b6106f790919063ffffffff16565b91508080600101915050610445565b819250505090565b60028054600181600116156101000203166002900480601f01602080910402602001604051908101604052809291908181526020018280546001816001161561010002031660029004801561062a5780601f106105ff5761010080835404028352916020019161062a565b820191906000526020600020905b81548152906001019060200180831161060d57829003601f168201915b505050505081565b6000809054906101000a900473ffffffffffffffffffffffffffffffffffffffff1681565b606060018290806001815401808255809150509060018203906000526020600020016000909192909190915090805190602001906106969291906107c4565b505081600390805190602001906106ae9291906107c4565b50600460008154809291906001019190505550819050919050565b6106d1610844565b600060208301905060408051908101604052808451815260200182815250915050919050565b606080600083600001518560000151016040519080825280601f01601f1916602001820160405280156107395781602001602082028038833980820191505090505b5091506020820190506107558186602001518760000151610779565b61076e8560000151820185602001518660000151610779565b819250505092915050565b60005b6020821015156107a1578251845260208401935060208301925060208203915061077c565b6001826020036101000a0390508019835116818551168181178652505050505050565b828054600181600116156101000203166002900490600052602060002090601f016020900481019282601f1061080557805160ff1916838001178555610833565b82800160010185558215610833579182015b82811115610832578251825591602001919060010190610817565b5b509050610840919061085e565b5090565b604080519081016040528060008152602001600081525090565b61088091905b8082111561087c576000816000905550600101610864565b5090565b905600a165627a7a72305820d17c26361802f0f076ca0081a2842781c94a6c7393f1e7254822e72dc1f9437c0029",
  "source": "pragma solidity ^0.4.24;\n\nimport \"./strings.sol\";\n\ncontract Echo{\n    address public owner;\n    string[] private history;\n    using strings for *;\n    string public s;\n    string public lastMessage;\n    uint public messageCount;\n\n    modifier onlyOwner() {\n        if (msg.sender == owner) _;\n    }\n\n    constructor() public {\n        owner = msg.sender;\n        lastMessage = \"None yet\";\n    }\n\n    function echo(string text) public payable returns (string) {\n        history.push(text);\n        lastMessage = text;\n        messageCount++;\n        return text;\n    }\n\n    function fullHistory() public view returns (string){\n        string memory _history = \"\";\n        for (uint i = 0; i < history.length; i++){\n            _history = _history.toSlice().concat(\"||\".toSlice()).toSlice().concat(history[i].toSlice());\n        }\n        return _history;\n    }\n}",
  "sourcePath": "/Users/alacret/workspace/echo-blockchain/contracts/Echo.sol",
  "compiler": {
    "name": "solc",
    "version": "0.4.24+commit.e67f0147.Emscripten.clang"
  },
  "schemaVersion": "2.0.1",
  "updatedAt": "2018-08-04T02:11:48.984Z"
}