{
  "contractName": "Sum",
  "abi": [
    {
      "inputs": [],
      "payable": false,
      "stateMutability": "nonpayable",
      "type": "constructor"
    },
    {
      "constant": true,
      "inputs": [
        {
          "name": "first",
          "type": "uint256"
        },
        {
          "name": "second",
          "type": "uint256"
        }
      ],
      "name": "sum",
      "outputs": [
        {
          "name": "",
          "type": "uint256"
        }
      ],
      "payable": false,
      "stateMutability": "view",
      "type": "function"
    }
  ],
  "bytecode": "0x608060405234801561001057600080fd5b5060c58061001f6000396000f300608060405260043610603f576000357c0100000000000000000000000000000000000000000000000000000000900463ffffffff168063cad0899b146044575b600080fd5b348015604f57600080fd5b5060766004803603810190808035906020019092919080359060200190929190505050608c565b6040518082815260200191505060405180910390f35b60008183019050929150505600a165627a7a723058209777403f4d7fab7ff07e3d300724e9b192aedc9db9cb9af1d9b226414c8b30170029",
  "source": "pragma solidity ^0.4.24;\n\ncontract Sum{\n    constructor() public {\n    }\n\n    function sum(uint first, uint second) public view returns (uint) {\n        return (first + second);\n    }\n}",
  "sourcePath": "/Users/alacret/workspace/echo-blockchain/contracts/Sum.sol",
  "compiler": {
    "name": "solc",
    "version": "0.4.24+commit.e67f0147.Emscripten.clang"
  },
  "schemaVersion": "2.0.1",
  "updatedAt": "2018-08-04T02:11:49.336Z"
}