{
  "contractName": "Echo",
  "abi": [
    {
      "constant": true,
      "inputs": [],
      "name": "owner",
      "outputs": [
        {
          "name": "",
          "type": "address"
        }
      ],
      "payable": false,
      "stateMutability": "view",
      "type": "function"
    },
    {
      "inputs": [],
      "payable": false,
      "stateMutability": "nonpayable",
      "type": "constructor"
    },
    {
      "constant": false,
      "inputs": [
        {
          "name": "text",
          "type": "string"
        }
      ],
      "name": "echo",
      "outputs": [
        {
          "name": "",
          "type": "string"
        }
      ],
      "payable": false,
      "stateMutability": "nonpayable",
      "type": "function"
    },
    {
      "constant": true,
      "inputs": [],
      "name": "fullHistory",
      "outputs": [
        {
          "name": "",
          "type": "bytes"
        }
      ],
      "payable": false,
      "stateMutability": "view",
      "type": "function"
    }
  ],
  "bytecode": "0x608060405234801561001057600080fd5b50336000806101000a81548173ffffffffffffffffffffffffffffffffffffffff021916908373ffffffffffffffffffffffffffffffffffffffff16021790555061067e806100606000396000f300608060405260043610610057576000357c0100000000000000000000000000000000000000000000000000000000900463ffffffff1680637fa953c91461005c5780638da5cb5b146100ec578063f15da72914610143575b600080fd5b34801561006857600080fd5b50610071610225565b6040518080602001828103825283818151815260200191508051906020019080838360005b838110156100b1578082015181840152602081019050610096565b50505050905090810190601f1680156100de5780820380516001836020036101000a031916815260200191505b509250505060405180910390f35b3480156100f857600080fd5b50610101610316565b604051808273ffffffffffffffffffffffffffffffffffffffff1673ffffffffffffffffffffffffffffffffffffffff16815260200191505060405180910390f35b34801561014f57600080fd5b506101aa600480360381019080803590602001908201803590602001908080601f016020809104026020016040519081016040528093929190818152602001838380828437820191505050505050919291929050505061033b565b6040518080602001828103825283818151815260200191508051906020019080838360005b838110156101ea5780820151818401526020810190506101cf565b50505050905090810190601f1680156102175780820380516001836020036101000a031916815260200191505b509250505060405180910390f35b60606103116001805480602002602001604051908101604052809291908181526020016000905b82821015610308578382906000526020600020018054600181600116156101000203166002900480601f0160208091040260200160405190810160405280929190818152602001828054600181600116156101000203166002900480156102f45780601f106102c9576101008083540402835291602001916102f4565b820191906000526020600020905b8154815290600101906020018083116102d757829003601f168201915b50505050508152602001906001019061024c565b505050506103d9565b905090565b6000809054906101000a900473ffffffffffffffffffffffffffffffffffffffff1681565b60606000809054906101000a900473ffffffffffffffffffffffffffffffffffffffff1673ffffffffffffffffffffffffffffffffffffffff163373ffffffffffffffffffffffffffffffffffffffff1614156103d45781600160026000815480929190600101919050558154811015156103b257fe5b9060005260206000200190805190602001906103cf9291906105ad565b508190505b919050565b606060008060006060806000808851141561042a5760006040519080825280601f01601f1916602001820160405280156104225781602001602082028038833980820191505090505b5096506104fe565b60009550600188510394506001868603016040029350836040519080825280601f01601f1916602001820160405280156104735781602001602082028038833980820191505090505b50925060206040519080825280601f01601f1916602001820160405280156104aa5781602001602082028038833980820191505090505b5091508490505b85811015156104fa5787818151811015156104c857fe5b9060200190602002015191506104df848385610509565b6104e882610568565b840393508080600190039150506104b1565b8296505b505050505050919050565b60006020835181151561051857fe5b04905060006020845181151561052a57fe5b06111561053a5780806001019150505b60006001820191505b6020810284015185840152602085039450600181019050818110610543575050505050565b60006020825181151561057757fe5b04905060006020835181151561058957fe5b0614151561059a5780806001019150505b8080600101915050602081029050919050565b828054600181600116156101000203166002900490600052602060002090601f016020900481019282601f106105ee57805160ff191683800117855561061c565b8280016001018555821561061c579182015b8281111561061b578251825591602001919060010190610600565b5b509050610629919061062d565b5090565b61064f91905b8082111561064b576000816000905550600101610633565b5090565b905600a165627a7a72305820863c7b1b32354f76055aa143781af36ca93b9081a5a12747219cf015eb26aea00029",
  "source": "pragma solidity ^0.4.24;\n\nimport \"./Serialize.sol\";\n\ncontract Echo is Serialize{\n    address public owner;\n    string[] private history;\n    uint private wordcount;\n\n    modifier onlyOwner() {\n        if (msg.sender == owner) _;\n    }\n\n    constructor() public {\n        owner = msg.sender;\n    }\n\n    function echo(string text) onlyOwner public returns (string) {\n        history[wordcount++] = text;\n        return text;\n    }\n\n    function fullHistory() public view returns (bytes){\n        return stringArrayToBytes(history);\n    }\n\n}",
  "sourcePath": "/home/alacret/workspace/echo-blockchain/contracts/Echo.sol",
  "compiler": {
    "name": "solc",
    "version": "0.4.24+commit.e67f0147.Emscripten.clang"
  },
  "schemaVersion": "2.0.1",
  "updatedAt": "2018-07-28T19:26:38.237Z"
}